:100000000C942A000C9434000C9434000C943400AA
:100010000C9434000C9434000C9434000C94340090
:100020000C9434000C9434000C9434000C94340080
:100030000C9434000C9434000C9434000C94340070
:100040000C9434000C9434000C9434000C94340060
:100050000C94340011241FBECFE5D8E0DEBFCDBF25
:100060000E9445000C9488000C940000863419F41A
:100070008AE085BB08958C3419F489E085BB089526
:10008000823511F486E085BB089517BA8FEF84BBE3
:10009000B09B07C0B19905C0B29B03C080E00E942D
:1000A0003600B09907C0B19905C0B29903C080E08D
:1000B0000E943600B09B07C0B19B05C0B29B03C035
:1000C00080E00E943600B09B07C0B19B05C0B2998A
:1000D00003C080E00E943600B09B07C0B19905C004
:1000E000B29903C080E00E943600B09907C0B19B6E
:1000F00005C0B29B03C080E00E943600B099C8CF13
:10010000B199C6CFB29BC4CF80E00E943600C0CF69
:04011000F894FFCF91
:00000001FF
