:100000000C942A000C9434000C9434000C943400AA
:100010000C9434000C9434000C9434000C94340090
:100020000C9434000C9434000C9434000C94340080
:100030000C9434000C9434000C9434000C94340070
:100040000C9434000C9434000C9434000C94340060
:100050000C94340011241FBECFE5D8E0DEBFCDBF25
:100060000E9436000C949A000C9400008F9A85B57B
:10007000846685BD14BC17BA8FEF88BB8FE08ABB3E
:100080009AE026E901C09AE086B38B3F19F086B367
:10009000803E41F423BD8BB38A608BBBDA98D8983D
:1000A00090E0F2CF86B38C3F31F086B38E3F19F0EB
:1000B00086B38D3F41F423BD8BB386608BBBD8984C
:1000C000DB9891E0E1CF86B3873E31F086B38F3E77
:1000D00019F086B3873F41F423BD8BB389608BBB96
:1000E000D998DA9892E0D0CF86B38F3F69F69923FA
:1000F00031F423BD8BB385608BBBD99807C0913099
:1001000039F423BD8BB386608BBBD898DB98BCCF0A
:10011000923009F0B8CF23BD8BB389608BBBD998DF
:10012000DA98B2CF8F9A85B5846685BD14BC0895E0
:0801300083BD0895F894FFCF90
:00000001FF
