:100000000C942A000C9434000C9434000C943400AA
:100010000C9434000C9434000C9434000C94340090
:100020000C9434000C9434000C9434000C94340080
:100030000C9434000C9434000C9434000C94340070
:100040000C9434000C9434000C9434000C94340060
:100050000C94340011241FBECFE5D8E0DEBFCDBF25
:100060000E9436000C9455000C94000087B3866003
:1000700087BB8FB581658FBD8EB581608EBD2DE745
:1000800030E08CE390E0989B03C09BBD8ABD06C026
:10009000999B03C03BBD2ABD01C013BAE3ECF9E054
:0E00A0003197F1F700C00000EECFF894FFCFCB
:00000001FF
