S01100004558414D504C4520322E73726563B5
S11300000C942A000C9434000C9434000C943400A6
S11300100C9434000C9434000C9434000C9434008C
S11300200C9434000C9434000C9434000C9434007C
S11300300C9434000C9434000C9434000C9434006C
S11300400C9434000C9434000C9434000C9434005C
S11300500C94340011241FBECFE5D4E0DEBFCDBF25
S11300600E9436000C944D000C94000087E08ABB7B
S113007017BA8FEF88BB37E023E091E086B38E3F59
S113008011F49BBBFBCF86B38D3F11F42BBBF6CF92
S111009086B38B3F99F73BBBF1CFF894FFCFBB
S9030000FC
